{
  "contractName": "TestERC1155",
  "abi": [
    {
      "inputs": [],
      "stateMutability": "nonpayable",
      "type": "constructor"
    },
    {
      "anonymous": false,
      "inputs": [
        {
          "indexed": true,
          "internalType": "address",
          "name": "account",
          "type": "address"
        },
        {
          "indexed": true,
          "internalType": "address",
          "name": "operator",
          "type": "address"
        },
        {
          "indexed": false,
          "internalType": "bool",
          "name": "approved",
          "type": "bool"
        }
      ],
      "name": "ApprovalForAll",
      "type": "event"
    },
    {
      "anonymous": false,
      "inputs": [
        {
          "indexed": true,
          "internalType": "address",
          "name": "operator",
          "type": "address"
        },
        {
          "indexed": true,
          "internalType": "address",
          "name": "from",
          "type": "address"
        },
        {
          "indexed": true,
          "internalType": "address",
          "name": "to",
          "type": "address"
        },
        {
          "indexed": false,
          "internalType": "uint256[]",
          "name": "ids",
          "type": "uint256[]"
        },
        {
          "indexed": false,
          "internalType": "uint256[]",
          "name": "values",
          "type": "uint256[]"
        }
      ],
      "name": "TransferBatch",
      "type": "event"
    },
    {
      "anonymous": false,
      "inputs": [
        {
          "indexed": true,
          "internalType": "address",
          "name": "operator",
          "type": "address"
        },
        {
          "indexed": true,
          "internalType": "address",
          "name": "from",
          "type": "address"
        },
        {
          "indexed": true,
          "internalType": "address",
          "name": "to",
          "type": "address"
        },
        {
          "indexed": false,
          "internalType": "uint256",
          "name": "id",
          "type": "uint256"
        },
        {
          "indexed": false,
          "internalType": "uint256",
          "name": "value",
          "type": "uint256"
        }
      ],
      "name": "TransferSingle",
      "type": "event"
    },
    {
      "anonymous": false,
      "inputs": [
        {
          "indexed": false,
          "internalType": "string",
          "name": "value",
          "type": "string"
        },
        {
          "indexed": true,
          "internalType": "uint256",
          "name": "id",
          "type": "uint256"
        }
      ],
      "name": "URI",
      "type": "event"
    },
    {
      "inputs": [
        {
          "internalType": "address",
          "name": "account",
          "type": "address"
        },
        {
          "internalType": "uint256",
          "name": "id",
          "type": "uint256"
        }
      ],
      "name": "balanceOf",
      "outputs": [
        {
          "internalType": "uint256",
          "name": "",
          "type": "uint256"
        }
      ],
      "stateMutability": "view",
      "type": "function",
      "constant": true
    },
    {
      "inputs": [
        {
          "internalType": "address[]",
          "name": "accounts",
          "type": "address[]"
        },
        {
          "internalType": "uint256[]",
          "name": "ids",
          "type": "uint256[]"
        }
      ],
      "name": "balanceOfBatch",
      "outputs": [
        {
          "internalType": "uint256[]",
          "name": "",
          "type": "uint256[]"
        }
      ],
      "stateMutability": "view",
      "type": "function",
      "constant": true
    },
    {
      "inputs": [
        {
          "internalType": "address",
          "name": "account",
          "type": "address"
        },
        {
          "internalType": "address",
          "name": "operator",
          "type": "address"
        }
      ],
      "name": "isApprovedForAll",
      "outputs": [
        {
          "internalType": "bool",
          "name": "",
          "type": "bool"
        }
      ],
      "stateMutability": "view",
      "type": "function",
      "constant": true
    },
    {
      "inputs": [],
      "name": "myERC20",
      "outputs": [
        {
          "internalType": "uint256",
          "name": "",
          "type": "uint256"
        }
      ],
      "stateMutability": "view",
      "type": "function",
      "constant": true
    },
    {
      "inputs": [],
      "name": "myNFT",
      "outputs": [
        {
          "internalType": "uint256",
          "name": "",
          "type": "uint256"
        }
      ],
      "stateMutability": "view",
      "type": "function",
      "constant": true
    },
    {
      "inputs": [
        {
          "internalType": "address",
          "name": "from",
          "type": "address"
        },
        {
          "internalType": "address",
          "name": "to",
          "type": "address"
        },
        {
          "internalType": "uint256[]",
          "name": "ids",
          "type": "uint256[]"
        },
        {
          "internalType": "uint256[]",
          "name": "amounts",
          "type": "uint256[]"
        },
        {
          "internalType": "bytes",
          "name": "data",
          "type": "bytes"
        }
      ],
      "name": "safeBatchTransferFrom",
      "outputs": [],
      "stateMutability": "nonpayable",
      "type": "function"
    },
    {
      "inputs": [
        {
          "internalType": "address",
          "name": "from",
          "type": "address"
        },
        {
          "internalType": "address",
          "name": "to",
          "type": "address"
        },
        {
          "internalType": "uint256",
          "name": "id",
          "type": "uint256"
        },
        {
          "internalType": "uint256",
          "name": "amount",
          "type": "uint256"
        },
        {
          "internalType": "bytes",
          "name": "data",
          "type": "bytes"
        }
      ],
      "name": "safeTransferFrom",
      "outputs": [],
      "stateMutability": "nonpayable",
      "type": "function"
    },
    {
      "inputs": [
        {
          "internalType": "address",
          "name": "operator",
          "type": "address"
        },
        {
          "internalType": "bool",
          "name": "approved",
          "type": "bool"
        }
      ],
      "name": "setApprovalForAll",
      "outputs": [],
      "stateMutability": "nonpayable",
      "type": "function"
    },
    {
      "inputs": [
        {
          "internalType": "bytes4",
          "name": "interfaceId",
          "type": "bytes4"
        }
      ],
      "name": "supportsInterface",
      "outputs": [
        {
          "internalType": "bool",
          "name": "",
          "type": "bool"
        }
      ],
      "stateMutability": "view",
      "type": "function",
      "constant": true
    },
    {
      "inputs": [
        {
          "internalType": "uint256",
          "name": "",
          "type": "uint256"
        }
      ],
      "name": "uri",
      "outputs": [
        {
          "internalType": "string",
          "name": "",
          "type": "string"
        }
      ],
      "stateMutability": "view",
      "type": "function",
      "constant": true
    }
  ],
  "bytecode": "0x60806040523480156200001157600080fd5b506040518060600160405280602481526020016200337d602491396200003d816200009160201b60201c565b5062000063336000600160405180602001604052806000815250620000ad60201b60201c565b6200008b336001633b9aca0060405180602001604052806000815250620000ad60201b60201c565b62000cb3565b8060029080519060200190620000a992919062000568565b5050565b600073ffffffffffffffffffffffffffffffffffffffff168473ffffffffffffffffffffffffffffffffffffffff16141562000120576040517f08c379a0000000000000000000000000000000000000000000000000000000008152600401620001179062000840565b60405180910390fd5b6000620001326200027260201b60201c565b90506200016b816000876200014d886200027a60201b60201c565b6200015e886200027a60201b60201c565b876200034360201b60201c565b8260008086815260200190815260200160002060008773ffffffffffffffffffffffffffffffffffffffff1673ffffffffffffffffffffffffffffffffffffffff1681526020019081526020016000206000828254620001cc9190620008d1565b925050819055508473ffffffffffffffffffffffffffffffffffffffff16600073ffffffffffffffffffffffffffffffffffffffff168273ffffffffffffffffffffffffffffffffffffffff167fc3d58168c5ae7397731d063d5bbf3d657854427343f4c083240f7aacaa2d0f6287876040516200024c92919062000862565b60405180910390a46200026b816000878787876200034b60201b60201c565b5050505050565b600033905090565b60606000600167ffffffffffffffff811115620002c0577f4e487b7100000000000000000000000000000000000000000000000000000000600052604160045260246000fd5b604051908082528060200260200182016040528015620002ef5781602001602082028036833780820191505090505b50905082816000815181106200032e577f4e487b7100000000000000000000000000000000000000000000000000000000600052603260045260246000fd5b60200260200101818152505080915050919050565b505050505050565b620003778473ffffffffffffffffffffffffffffffffffffffff166200055560201b62000f3f1760201c565b156200054d578373ffffffffffffffffffffffffffffffffffffffff1663f23a6e6187878686866040518663ffffffff1660e01b8152600401620003c095949392919062000774565b602060405180830381600087803b158015620003db57600080fd5b505af19250505080156200040f57506040513d601f19601f820116820180604052508101906200040c91906200062f565b60015b620004c1576200041e62000ac7565b806308c379a014156200048257506200043662000bf7565b8062000443575062000484565b806040517f08c379a0000000000000000000000000000000000000000000000000000000008152600401620004799190620007d8565b60405180910390fd5b505b6040517f08c379a0000000000000000000000000000000000000000000000000000000008152600401620004b890620007fc565b60405180910390fd5b63f23a6e6160e01b7bffffffffffffffffffffffffffffffffffffffffffffffffffffffff1916817bffffffffffffffffffffffffffffffffffffffffffffffffffffffff1916146200054b576040517f08c379a000000000000000000000000000000000000000000000000000000000815260040162000542906200081e565b60405180910390fd5b505b505050505050565b600080823b905060008111915050919050565b8280546200057690620009ce565b90600052602060002090601f0160209004810192826200059a5760008555620005e6565b82601f10620005b557805160ff1916838001178555620005e6565b82800160010185558215620005e6579182015b82811115620005e5578251825591602001919060010190620005c8565b5b509050620005f59190620005f9565b5090565b5b8082111562000614576000816000905550600101620005fa565b5090565b600081519050620006298162000c99565b92915050565b6000602082840312156200064257600080fd5b6000620006528482850162000618565b91505092915050565b62000666816200092e565b82525050565b6000620006798262000899565b620006858185620008af565b93506200069781856020860162000998565b620006a28162000aec565b840191505092915050565b6000620006ba82620008a4565b620006c68185620008c0565b9350620006d881856020860162000998565b620006e38162000aec565b840191505092915050565b6000620006fd603483620008c0565b91506200070a8262000b0a565b604082019050919050565b600062000724602883620008c0565b9150620007318262000b59565b604082019050919050565b60006200074b602183620008c0565b9150620007588262000ba8565b604082019050919050565b6200076e816200098e565b82525050565b600060a0820190506200078b60008301886200065b565b6200079a60208301876200065b565b620007a9604083018662000763565b620007b8606083018562000763565b8181036080830152620007cc81846200066c565b90509695505050505050565b60006020820190508181036000830152620007f48184620006ad565b905092915050565b600060208201905081810360008301526200081781620006ee565b9050919050565b60006020820190508181036000830152620008398162000715565b9050919050565b600060208201905081810360008301526200085b816200073c565b9050919050565b600060408201905062000879600083018562000763565b62000888602083018462000763565b9392505050565b6000604051905090565b600081519050919050565b600081519050919050565b600082825260208201905092915050565b600082825260208201905092915050565b6000620008de826200098e565b9150620008eb836200098e565b9250827fffffffffffffffffffffffffffffffffffffffffffffffffffffffffffffffff0382111562000923576200092262000a3a565b5b828201905092915050565b60006200093b826200096e565b9050919050565b60007fffffffff0000000000000000000000000000000000000000000000000000000082169050919050565b600073ffffffffffffffffffffffffffffffffffffffff82169050919050565b6000819050919050565b60005b83811015620009b85780820151818401526020810190506200099b565b83811115620009c8576000848401525b50505050565b60006002820490506001821680620009e757607f821691505b60208210811415620009fe57620009fd62000a69565b5b50919050565b62000a0f8262000aec565b810181811067ffffffffffffffff8211171562000a315762000a3062000a98565b5b80604052505050565b7f4e487b7100000000000000000000000000000000000000000000000000000000600052601160045260246000fd5b7f4e487b7100000000000000000000000000000000000000000000000000000000600052602260045260246000fd5b7f4e487b7100000000000000000000000000000000000000000000000000000000600052604160045260246000fd5b600060033d111562000ae95760046000803e62000ae660005162000afd565b90505b90565b6000601f19601f8301169050919050565b60008160e01c9050919050565b7f455243313135353a207472616e7366657220746f206e6f6e204552433131353560008201527f526563656976657220696d706c656d656e746572000000000000000000000000602082015250565b7f455243313135353a204552433131353552656365697665722072656a6563746560008201527f6420746f6b656e73000000000000000000000000000000000000000000000000602082015250565b7f455243313135353a206d696e7420746f20746865207a65726f2061646472657360008201527f7300000000000000000000000000000000000000000000000000000000000000602082015250565b600060443d101562000c095762000c96565b62000c136200088f565b60043d036004823e80513d602482011167ffffffffffffffff8211171562000c3d57505062000c96565b808201805167ffffffffffffffff81111562000c5d575050505062000c96565b80602083010160043d03850181111562000c7c57505050505062000c96565b62000c8d8260200185018662000a04565b82955050505050505b90565b62000ca48162000942565b811462000cb057600080fd5b50565b6126ba8062000cc36000396000f3fe608060405234801561001057600080fd5b506004361061009d5760003560e01c80634e1273f4116100665780634e1273f41461016c5780636d3739c41461019c578063a22cb465146101ba578063e985e9c5146101d6578063f242432a146102065761009d565b8062fdd58e146100a257806301ffc9a7146100d257806309a31d50146101025780630e89341c146101205780632eb2c2d614610150575b600080fd5b6100bc60048036038101906100b79190611823565b610222565b6040516100c99190611e60565b60405180910390f35b6100ec60048036038101906100e791906118cb565b6102eb565b6040516100f99190611ce3565b60405180910390f35b61010a6103cd565b6040516101179190611e60565b60405180910390f35b61013a6004803603810190610135919061191d565b6103d2565b6040516101479190611cfe565b60405180910390f35b61016a60048036038101906101659190611699565b610466565b005b6101866004803603810190610181919061185f565b61085c565b6040516101939190611c8a565b60405180910390f35b6101a4610a0d565b6040516101b19190611e60565b60405180910390f35b6101d460048036038101906101cf91906117e7565b610a12565b005b6101f060048036038101906101eb919061165d565b610b93565b6040516101fd9190611ce3565b60405180910390f35b610220600480360381019061021b9190611758565b610c27565b005b60008073ffffffffffffffffffffffffffffffffffffffff168373ffffffffffffffffffffffffffffffffffffffff161415610293576040517f08c379a000000000000000000000000000000000000000000000000000000000815260040161028a90611d60565b60405180910390fd5b60008083815260200190815260200160002060008473ffffffffffffffffffffffffffffffffffffffff1673ffffffffffffffffffffffffffffffffffffffff16815260200190815260200160002054905092915050565b60007fd9b67a26000000000000000000000000000000000000000000000000000000007bffffffffffffffffffffffffffffffffffffffffffffffffffffffff1916827bffffffffffffffffffffffffffffffffffffffffffffffffffffffff191614806103b657507f0e89341c000000000000000000000000000000000000000000000000000000007bffffffffffffffffffffffffffffffffffffffffffffffffffffffff1916827bffffffffffffffffffffffffffffffffffffffffffffffffffffffff1916145b806103c657506103c582610f52565b5b9050919050565b600081565b6060600280546103e190612103565b80601f016020809104026020016040519081016040528092919081815260200182805461040d90612103565b801561045a5780601f1061042f5761010080835404028352916020019161045a565b820191906000526020600020905b81548152906001019060200180831161043d57829003601f168201915b50505050509050919050565b81518351146104aa576040517f08c379a00000000000000000000000000000000000000000000000000000000081526004016104a190611e40565b60405180910390fd5b600073ffffffffffffffffffffffffffffffffffffffff168473ffffffffffffffffffffffffffffffffffffffff16141561051a576040517f08c379a000000000000000000000000000000000000000000000000000000000815260040161051190611da0565b60405180910390fd5b610522610fbc565b73ffffffffffffffffffffffffffffffffffffffff168573ffffffffffffffffffffffffffffffffffffffff161480610568575061056785610562610fbc565b610b93565b5b6105a7576040517f08c379a000000000000000000000000000000000000000000000000000000000815260040161059e90611dc0565b60405180910390fd5b60006105b1610fbc565b90506105c1818787878787610fc4565b60005b84518110156107c7576000858281518110610608577f4e487b7100000000000000000000000000000000000000000000000000000000600052603260045260246000fd5b60200260200101519050600085838151811061064d577f4e487b7100000000000000000000000000000000000000000000000000000000600052603260045260246000fd5b60200260200101519050600080600084815260200190815260200160002060008b73ffffffffffffffffffffffffffffffffffffffff1673ffffffffffffffffffffffffffffffffffffffff168152602001908152602001600020549050818110156106ee576040517f08c379a00000000000000000000000000000000000000000000000000000000081526004016106e590611de0565b60405180910390fd5b81816106fa9190612019565b60008085815260200190815260200160002060008c73ffffffffffffffffffffffffffffffffffffffff1673ffffffffffffffffffffffffffffffffffffffff168152602001908152602001600020819055508160008085815260200190815260200160002060008b73ffffffffffffffffffffffffffffffffffffffff1673ffffffffffffffffffffffffffffffffffffffff16815260200190815260200160002060008282546107ac9190611fc3565b92505081905550505050806107c090612166565b90506105c4565b508473ffffffffffffffffffffffffffffffffffffffff168673ffffffffffffffffffffffffffffffffffffffff168273ffffffffffffffffffffffffffffffffffffffff167f4a39dc06d4c0dbc64b70af90fd698a233a518aa5d07e595d983b8c0526c8f7fb878760405161083e929190611cac565b60405180910390a4610854818787878787610fcc565b505050505050565b606081518351146108a2576040517f08c379a000000000000000000000000000000000000000000000000000000000815260040161089990611e20565b60405180910390fd5b6000835167ffffffffffffffff8111156108e5577f4e487b7100000000000000000000000000000000000000000000000000000000600052604160045260246000fd5b6040519080825280602002602001820160405280156109135781602001602082028036833780820191505090505b50905060005b8451811015610a02576109ac85828151811061095e577f4e487b7100000000000000000000000000000000000000000000000000000000600052603260045260246000fd5b602002602001015185838151811061099f577f4e487b7100000000000000000000000000000000000000000000000000000000600052603260045260246000fd5b6020026020010151610222565b8282815181106109e5577f4e487b7100000000000000000000000000000000000000000000000000000000600052603260045260246000fd5b602002602001018181525050806109fb90612166565b9050610919565b508091505092915050565b600181565b8173ffffffffffffffffffffffffffffffffffffffff16610a31610fbc565b73ffffffffffffffffffffffffffffffffffffffff161415610a88576040517f08c379a0000000000000000000000000000000000000000000000000000000008152600401610a7f90611e00565b60405180910390fd5b8060016000610a95610fbc565b73ffffffffffffffffffffffffffffffffffffffff1673ffffffffffffffffffffffffffffffffffffffff16815260200190815260200160002060008473ffffffffffffffffffffffffffffffffffffffff1673ffffffffffffffffffffffffffffffffffffffff16815260200190815260200160002060006101000a81548160ff0219169083151502179055508173ffffffffffffffffffffffffffffffffffffffff16610b42610fbc565b73ffffffffffffffffffffffffffffffffffffffff167f17307eab39ab6107e8899845ad3d59bd9653f200f220920489ca2b5937696c3183604051610b879190611ce3565b60405180910390a35050565b6000600160008473ffffffffffffffffffffffffffffffffffffffff1673ffffffffffffffffffffffffffffffffffffffff16815260200190815260200160002060008373ffffffffffffffffffffffffffffffffffffffff1673ffffffffffffffffffffffffffffffffffffffff16815260200190815260200160002060009054906101000a900460ff16905092915050565b600073ffffffffffffffffffffffffffffffffffffffff168473ffffffffffffffffffffffffffffffffffffffff161415610c97576040517f08c379a0000000000000000000000000000000000000000000000000000000008152600401610c8e90611da0565b60405180910390fd5b610c9f610fbc565b73ffffffffffffffffffffffffffffffffffffffff168573ffffffffffffffffffffffffffffffffffffffff161480610ce55750610ce485610cdf610fbc565b610b93565b5b610d24576040517f08c379a0000000000000000000000000000000000000000000000000000000008152600401610d1b90611d80565b60405180910390fd5b6000610d2e610fbc565b9050610d4e818787610d3f886111b3565b610d48886111b3565b87610fc4565b600080600086815260200190815260200160002060008873ffffffffffffffffffffffffffffffffffffffff1673ffffffffffffffffffffffffffffffffffffffff16815260200190815260200160002054905083811015610de5576040517f08c379a0000000000000000000000000000000000000000000000000000000008152600401610ddc90611de0565b60405180910390fd5b8381610df19190612019565b60008087815260200190815260200160002060008973ffffffffffffffffffffffffffffffffffffffff1673ffffffffffffffffffffffffffffffffffffffff168152602001908152602001600020819055508360008087815260200190815260200160002060008873ffffffffffffffffffffffffffffffffffffffff1673ffffffffffffffffffffffffffffffffffffffff1681526020019081526020016000206000828254610ea39190611fc3565b925050819055508573ffffffffffffffffffffffffffffffffffffffff168773ffffffffffffffffffffffffffffffffffffffff168373ffffffffffffffffffffffffffffffffffffffff167fc3d58168c5ae7397731d063d5bbf3d657854427343f4c083240f7aacaa2d0f628888604051610f20929190611e7b565b60405180910390a4610f36828888888888611279565b50505050505050565b600080823b905060008111915050919050565b60007f01ffc9a7000000000000000000000000000000000000000000000000000000007bffffffffffffffffffffffffffffffffffffffffffffffffffffffff1916827bffffffffffffffffffffffffffffffffffffffffffffffffffffffff1916149050919050565b600033905090565b505050505050565b610feb8473ffffffffffffffffffffffffffffffffffffffff16610f3f565b156111ab578373ffffffffffffffffffffffffffffffffffffffff1663bc197c8187878686866040518663ffffffff1660e01b8152600401611031959493929190611bc8565b602060405180830381600087803b15801561104b57600080fd5b505af192505050801561107c57506040513d601f19601f8201168201806040525081019061107991906118f4565b60015b6111225761108861223c565b806308c379a014156110e5575061109d612592565b806110a857506110e7565b806040517f08c379a00000000000000000000000000000000000000000000000000000000081526004016110dc9190611cfe565b60405180910390fd5b505b6040517f08c379a000000000000000000000000000000000000000000000000000000000815260040161111990611d20565b60405180910390fd5b63bc197c8160e01b7bffffffffffffffffffffffffffffffffffffffffffffffffffffffff1916817bffffffffffffffffffffffffffffffffffffffffffffffffffffffff1916146111a9576040517f08c379a00000000000000000000000000000000000000000000000000000000081526004016111a090611d40565b60405180910390fd5b505b505050505050565b60606000600167ffffffffffffffff8111156111f8577f4e487b7100000000000000000000000000000000000000000000000000000000600052604160045260246000fd5b6040519080825280602002602001820160405280156112265781602001602082028036833780820191505090505b5090508281600081518110611264577f4e487b7100000000000000000000000000000000000000000000000000000000600052603260045260246000fd5b60200260200101818152505080915050919050565b6112988473ffffffffffffffffffffffffffffffffffffffff16610f3f565b15611458578373ffffffffffffffffffffffffffffffffffffffff1663f23a6e6187878686866040518663ffffffff1660e01b81526004016112de959493929190611c30565b602060405180830381600087803b1580156112f857600080fd5b505af192505050801561132957506040513d601f19601f8201168201806040525081019061132691906118f4565b60015b6113cf5761133561223c565b806308c379a01415611392575061134a612592565b806113555750611394565b806040517f08c379a00000000000000000000000000000000000000000000000000000000081526004016113899190611cfe565b60405180910390fd5b505b6040517f08c379a00000000000000000000000000000000000000000000000000000000081526004016113c690611d20565b60405180910390fd5b63f23a6e6160e01b7bffffffffffffffffffffffffffffffffffffffffffffffffffffffff1916817bffffffffffffffffffffffffffffffffffffffffffffffffffffffff191614611456576040517f08c379a000000000000000000000000000000000000000000000000000000000815260040161144d90611d40565b60405180910390fd5b505b505050505050565b600061147361146e84611ec9565b611ea4565b9050808382526020820190508285602086028201111561149257600080fd5b60005b858110156114c257816114a88882611576565b845260208401935060208301925050600181019050611495565b5050509392505050565b60006114df6114da84611ef5565b611ea4565b905080838252602082019050828560208602820111156114fe57600080fd5b60005b8581101561152e57816115148882611648565b845260208401935060208301925050600181019050611501565b5050509392505050565b600061154b61154684611f21565b611ea4565b90508281526020810184848401111561156357600080fd5b61156e8482856120c1565b509392505050565b60008135905061158581612628565b92915050565b600082601f83011261159c57600080fd5b81356115ac848260208601611460565b91505092915050565b600082601f8301126115c657600080fd5b81356115d68482602086016114cc565b91505092915050565b6000813590506115ee8161263f565b92915050565b60008135905061160381612656565b92915050565b60008151905061161881612656565b92915050565b600082601f83011261162f57600080fd5b813561163f848260208601611538565b91505092915050565b6000813590506116578161266d565b92915050565b6000806040838503121561167057600080fd5b600061167e85828601611576565b925050602061168f85828601611576565b9150509250929050565b600080600080600060a086880312156116b157600080fd5b60006116bf88828901611576565b95505060206116d088828901611576565b945050604086013567ffffffffffffffff8111156116ed57600080fd5b6116f9888289016115b5565b935050606086013567ffffffffffffffff81111561171657600080fd5b611722888289016115b5565b925050608086013567ffffffffffffffff81111561173f57600080fd5b61174b8882890161161e565b9150509295509295909350565b600080600080600060a0868803121561177057600080fd5b600061177e88828901611576565b955050602061178f88828901611576565b94505060406117a088828901611648565b93505060606117b188828901611648565b925050608086013567ffffffffffffffff8111156117ce57600080fd5b6117da8882890161161e565b9150509295509295909350565b600080604083850312156117fa57600080fd5b600061180885828601611576565b9250506020611819858286016115df565b9150509250929050565b6000806040838503121561183657600080fd5b600061184485828601611576565b925050602061185585828601611648565b9150509250929050565b6000806040838503121561187257600080fd5b600083013567ffffffffffffffff81111561188c57600080fd5b6118988582860161158b565b925050602083013567ffffffffffffffff8111156118b557600080fd5b6118c1858286016115b5565b9150509250929050565b6000602082840312156118dd57600080fd5b60006118eb848285016115f4565b91505092915050565b60006020828403121561190657600080fd5b600061191484828501611609565b91505092915050565b60006020828403121561192f57600080fd5b600061193d84828501611648565b91505092915050565b60006119528383611baa565b60208301905092915050565b6119678161204d565b82525050565b600061197882611f62565b6119828185611f90565b935061198d83611f52565b8060005b838110156119be5781516119a58882611946565b97506119b083611f83565b925050600181019050611991565b5085935050505092915050565b6119d48161205f565b82525050565b60006119e582611f6d565b6119ef8185611fa1565b93506119ff8185602086016120d0565b611a088161225e565b840191505092915050565b6000611a1e82611f78565b611a288185611fb2565b9350611a388185602086016120d0565b611a418161225e565b840191505092915050565b6000611a59603483611fb2565b9150611a648261227c565b604082019050919050565b6000611a7c602883611fb2565b9150611a87826122cb565b604082019050919050565b6000611a9f602b83611fb2565b9150611aaa8261231a565b604082019050919050565b6000611ac2602983611fb2565b9150611acd82612369565b604082019050919050565b6000611ae5602583611fb2565b9150611af0826123b8565b604082019050919050565b6000611b08603283611fb2565b9150611b1382612407565b604082019050919050565b6000611b2b602a83611fb2565b9150611b3682612456565b604082019050919050565b6000611b4e602983611fb2565b9150611b59826124a5565b604082019050919050565b6000611b71602983611fb2565b9150611b7c826124f4565b604082019050919050565b6000611b94602883611fb2565b9150611b9f82612543565b604082019050919050565b611bb3816120b7565b82525050565b611bc2816120b7565b82525050565b600060a082019050611bdd600083018861195e565b611bea602083018761195e565b8181036040830152611bfc818661196d565b90508181036060830152611c10818561196d565b90508181036080830152611c2481846119da565b90509695505050505050565b600060a082019050611c45600083018861195e565b611c52602083018761195e565b611c5f6040830186611bb9565b611c6c6060830185611bb9565b8181036080830152611c7e81846119da565b90509695505050505050565b60006020820190508181036000830152611ca4818461196d565b905092915050565b60006040820190508181036000830152611cc6818561196d565b90508181036020830152611cda818461196d565b90509392505050565b6000602082019050611cf860008301846119cb565b92915050565b60006020820190508181036000830152611d188184611a13565b905092915050565b60006020820190508181036000830152611d3981611a4c565b9050919050565b60006020820190508181036000830152611d5981611a6f565b9050919050565b60006020820190508181036000830152611d7981611a92565b9050919050565b60006020820190508181036000830152611d9981611ab5565b9050919050565b60006020820190508181036000830152611db981611ad8565b9050919050565b60006020820190508181036000830152611dd981611afb565b9050919050565b60006020820190508181036000830152611df981611b1e565b9050919050565b60006020820190508181036000830152611e1981611b41565b9050919050565b60006020820190508181036000830152611e3981611b64565b9050919050565b60006020820190508181036000830152611e5981611b87565b9050919050565b6000602082019050611e756000830184611bb9565b92915050565b6000604082019050611e906000830185611bb9565b611e9d6020830184611bb9565b9392505050565b6000611eae611ebf565b9050611eba8282612135565b919050565b6000604051905090565b600067ffffffffffffffff821115611ee457611ee361220d565b5b602082029050602081019050919050565b600067ffffffffffffffff821115611f1057611f0f61220d565b5b602082029050602081019050919050565b600067ffffffffffffffff821115611f3c57611f3b61220d565b5b611f458261225e565b9050602081019050919050565b6000819050602082019050919050565b600081519050919050565b600081519050919050565b600081519050919050565b6000602082019050919050565b600082825260208201905092915050565b600082825260208201905092915050565b600082825260208201905092915050565b6000611fce826120b7565b9150611fd9836120b7565b9250827fffffffffffffffffffffffffffffffffffffffffffffffffffffffffffffffff0382111561200e5761200d6121af565b5b828201905092915050565b6000612024826120b7565b915061202f836120b7565b925082821015612042576120416121af565b5b828203905092915050565b600061205882612097565b9050919050565b60008115159050919050565b60007fffffffff0000000000000000000000000000000000000000000000000000000082169050919050565b600073ffffffffffffffffffffffffffffffffffffffff82169050919050565b6000819050919050565b82818337600083830152505050565b60005b838110156120ee5780820151818401526020810190506120d3565b838111156120fd576000848401525b50505050565b6000600282049050600182168061211b57607f821691505b6020821081141561212f5761212e6121de565b5b50919050565b61213e8261225e565b810181811067ffffffffffffffff8211171561215d5761215c61220d565b5b80604052505050565b6000612171826120b7565b91507fffffffffffffffffffffffffffffffffffffffffffffffffffffffffffffffff8214156121a4576121a36121af565b5b600182019050919050565b7f4e487b7100000000000000000000000000000000000000000000000000000000600052601160045260246000fd5b7f4e487b7100000000000000000000000000000000000000000000000000000000600052602260045260246000fd5b7f4e487b7100000000000000000000000000000000000000000000000000000000600052604160045260246000fd5b600060033d111561225b5760046000803e61225860005161226f565b90505b90565b6000601f19601f8301169050919050565b60008160e01c9050919050565b7f455243313135353a207472616e7366657220746f206e6f6e204552433131353560008201527f526563656976657220696d706c656d656e746572000000000000000000000000602082015250565b7f455243313135353a204552433131353552656365697665722072656a6563746560008201527f6420746f6b656e73000000000000000000000000000000000000000000000000602082015250565b7f455243313135353a2062616c616e636520717565727920666f7220746865207a60008201527f65726f2061646472657373000000000000000000000000000000000000000000602082015250565b7f455243313135353a2063616c6c6572206973206e6f74206f776e6572206e6f7260008201527f20617070726f7665640000000000000000000000000000000000000000000000602082015250565b7f455243313135353a207472616e7366657220746f20746865207a65726f20616460008201527f6472657373000000000000000000000000000000000000000000000000000000602082015250565b7f455243313135353a207472616e736665722063616c6c6572206973206e6f742060008201527f6f776e6572206e6f7220617070726f7665640000000000000000000000000000602082015250565b7f455243313135353a20696e73756666696369656e742062616c616e636520666f60008201527f72207472616e7366657200000000000000000000000000000000000000000000602082015250565b7f455243313135353a2073657474696e6720617070726f76616c2073746174757360008201527f20666f722073656c660000000000000000000000000000000000000000000000602082015250565b7f455243313135353a206163636f756e747320616e6420696473206c656e67746860008201527f206d69736d617463680000000000000000000000000000000000000000000000602082015250565b7f455243313135353a2069647320616e6420616d6f756e7473206c656e6774682060008201527f6d69736d61746368000000000000000000000000000000000000000000000000602082015250565b600060443d10156125a257612625565b6125aa611ebf565b60043d036004823e80513d602482011167ffffffffffffffff821117156125d2575050612625565b808201805167ffffffffffffffff8111156125f05750505050612625565b80602083010160043d03850181111561260d575050505050612625565b61261c82602001850186612135565b82955050505050505b90565b6126318161204d565b811461263c57600080fd5b50565b6126488161205f565b811461265357600080fd5b50565b61265f8161206b565b811461266a57600080fd5b50565b612676816120b7565b811461268157600080fd5b5056fea26469706673582212203851c8b1f2325e307c7874ffe89a63c8eae7128851e7cd3a9826106e81e23f6c64736f6c6343000803003368747470733a2f2f6c6f63616c686f73743a333030302f6170692f7b69647d2e6a736f6e",
  "immutableReferences": {},
  "source": "// SPDX-License-Identifier: MIT\npragma solidity ^0.8.0;\n\nimport \"@openzeppelin/contracts/token/ERC1155/ERC1155.sol\";\n\ncontract TestERC1155 is ERC1155 {\n    uint256 public constant myNFT = 0;\n    uint256 public constant myERC20 = 1;\n\n    // TODO: create local test backend for metadata uri resolution\n    // probably easiest with flask (separate repo?)\n\n    // Mints an NFT and 1,000,000,000 ERC20 tokens\n    constructor() ERC1155(\"https://localhost:3000/api/{id}.json\") {\n        _mint(msg.sender, myNFT, 1, \"\");\n        _mint(msg.sender, myERC20, 10**9, \"\");\n    }\n}\n",
  "sourcePath": "/Users/jackhessburg/Documents/Projects/Solidity/nft-vc/contracts/TestERC1155.sol",
  "compiler": {
    "name": "solc",
    "version": "0.8.3+commit.8d00100c.Emscripten.clang"
  },
  "schemaVersion": "3.3.4",
  "updatedAt": "2021-04-05T19:58:46.066Z",
  "networkType": "ethereum",
  "devdoc": {
    "kind": "dev",
    "methods": {
      "balanceOf(address,uint256)": {
        "details": "See {IERC1155-balanceOf}. Requirements: - `account` cannot be the zero address."
      },
      "balanceOfBatch(address[],uint256[])": {
        "details": "See {IERC1155-balanceOfBatch}. Requirements: - `accounts` and `ids` must have the same length."
      },
      "isApprovedForAll(address,address)": {
        "details": "See {IERC1155-isApprovedForAll}."
      },
      "safeBatchTransferFrom(address,address,uint256[],uint256[],bytes)": {
        "details": "See {IERC1155-safeBatchTransferFrom}."
      },
      "safeTransferFrom(address,address,uint256,uint256,bytes)": {
        "details": "See {IERC1155-safeTransferFrom}."
      },
      "setApprovalForAll(address,bool)": {
        "details": "See {IERC1155-setApprovalForAll}."
      },
      "supportsInterface(bytes4)": {
        "details": "See {IERC165-supportsInterface}."
      },
      "uri(uint256)": {
        "details": "See {IERC1155MetadataURI-uri}. This implementation returns the same URI for *all* token types. It relies on the token type ID substitution mechanism https://eips.ethereum.org/EIPS/eip-1155#metadata[defined in the EIP]. Clients calling this function must replace the `\\{id\\}` substring with the actual token type ID."
      }
    },
    "version": 1
  },
  "userdoc": {
    "kind": "user",
    "methods": {},
    "version": 1
  }
}